{
  "contractName": "Voting",
  "abi": [
    {
      "inputs": [
        {
          "internalType": "uint256",
          "name": "",
          "type": "uint256"
        }
      ],
      "name": "topics",
      "outputs": [
        {
          "internalType": "string",
          "name": "",
          "type": "string"
        }
      ],
      "stateMutability": "view",
      "type": "function",
      "constant": true
    },
    {
      "inputs": [
        {
          "internalType": "string",
          "name": "",
          "type": "string"
        }
      ],
      "name": "votes",
      "outputs": [
        {
          "internalType": "uint256",
          "name": "yes",
          "type": "uint256"
        },
        {
          "internalType": "uint256",
          "name": "no",
          "type": "uint256"
        }
      ],
      "stateMutability": "view",
      "type": "function",
      "constant": true
    },
    {
      "inputs": [
        {
          "internalType": "string",
          "name": "_topic",
          "type": "string"
        }
      ],
      "name": "createVote",
      "outputs": [],
      "stateMutability": "nonpayable",
      "type": "function"
    },
    {
      "inputs": [
        {
          "internalType": "string",
          "name": "_topic",
          "type": "string"
        },
        {
          "internalType": "bool",
          "name": "_voteYes",
          "type": "bool"
        }
      ],
      "name": "vote",
      "outputs": [],
      "stateMutability": "nonpayable",
      "type": "function"
    },
    {
      "inputs": [
        {
          "internalType": "string",
          "name": "_topic",
          "type": "string"
        }
      ],
      "name": "getResults",
      "outputs": [
        {
          "internalType": "uint256",
          "name": "yes",
          "type": "uint256"
        },
        {
          "internalType": "uint256",
          "name": "no",
          "type": "uint256"
        }
      ],
      "stateMutability": "view",
      "type": "function",
      "constant": true
    },
    {
      "inputs": [],
      "name": "getAllTopics",
      "outputs": [
        {
          "internalType": "string[]",
          "name": "",
          "type": "string[]"
        }
      ],
      "stateMutability": "view",
      "type": "function",
      "constant": true
    }
  ],
  "bytecode": "0x608060405234801561001057600080fd5b50610cb0806100206000396000f3fe608060405234801561001057600080fd5b50600436106100625760003560e01c806313292a021461006757806318d9adab1461008357806327d3410c146100b35780632ff20f01146100cf57806386416f1414610100578063b99ef1fa1461011e575b600080fd5b610081600480360381019061007c91906106bf565b61014f565b005b61009d60048036038101906100989190610754565b610269565b6040516100aa9190610971565b60405180910390f35b6100cd60048036038101906100c89190610700565b610315565b005b6100e960048036038101906100e491906106bf565b610427565b6040516100f79291906109d3565b60405180910390f35b610108610477565b604051610115919061094f565b60405180910390f35b610138600480360381019061013391906106bf565b610550565b6040516101469291906109d3565b60405180910390f35b600080826040516101609190610938565b90815260200160405180910390206000015414801561019f57506000808260405161018b9190610938565b908152602001604051809103902060010154145b6101de576040517f08c379a00000000000000000000000000000000000000000000000000000000081526004016101d5906109b3565b60405180910390fd5b60405180604001604052806000815260200160008152506000826040516102059190610938565b9081526020016040518091039020600082015181600001556020820151816001015590505060018190806001815401808255809150506001900390600052602060002001600090919091909150908051906020019061026592919061058a565b5050565b6001818154811061027957600080fd5b90600052602060002001600091509050805461029490610b7c565b80601f01602080910402602001604051908101604052809291908181526020018280546102c090610b7c565b801561030d5780601f106102e25761010080835404028352916020019161030d565b820191906000526020600020905b8154815290600101906020018083116102f057829003601f168201915b505050505081565b600080836040516103269190610938565b9081526020016040518091039020600001541415806103665750600080836040516103519190610938565b90815260200160405180910390206001015414155b6103a5576040517f08c379a000000000000000000000000000000000000000000000000000000000815260040161039c90610993565b60405180910390fd5b80156103e95760016000836040516103bd9190610938565b908152602001604051809103902060000160008282546103dd9190610ace565b92505081905550610423565b60016000836040516103fb9190610938565b9081526020016040518091039020600101600082825461041b9190610ace565b925050819055505b5050565b60008060008360405161043a9190610938565b90815260200160405180910390206000015460008460405161045c9190610938565b90815260200160405180910390206001015491509150915091565b60606001805480602002602001604051908101604052809291908181526020016000905b828210156105475783829060005260206000200180546104ba90610b7c565b80601f01602080910402602001604051908101604052809291908181526020018280546104e690610b7c565b80156105335780601f1061050857610100808354040283529160200191610533565b820191906000526020600020905b81548152906001019060200180831161051657829003601f168201915b50505050508152602001906001019061049b565b50505050905090565b6000818051602081018201805184825260208301602085012081835280955050505050506000915090508060000154908060010154905082565b82805461059690610b7c565b90600052602060002090601f0160209004810192826105b857600085556105ff565b82601f106105d157805160ff19168380011785556105ff565b828001600101855582156105ff579182015b828111156105fe5782518255916020019190600101906105e3565b5b50905061060c9190610610565b5090565b5b80821115610629576000816000905550600101610611565b5090565b600061064061063b84610a2d565b6109fc565b90508281526020810184848401111561065857600080fd5b610663848285610b3a565b509392505050565b60008135905061067a81610c4c565b92915050565b600082601f83011261069157600080fd5b81356106a184826020860161062d565b91505092915050565b6000813590506106b981610c63565b92915050565b6000602082840312156106d157600080fd5b600082013567ffffffffffffffff8111156106eb57600080fd5b6106f784828501610680565b91505092915050565b6000806040838503121561071357600080fd5b600083013567ffffffffffffffff81111561072d57600080fd5b61073985828601610680565b925050602061074a8582860161066b565b9150509250929050565b60006020828403121561076657600080fd5b6000610774848285016106aa565b91505092915050565b60006107898383610806565b905092915050565b600061079c82610a6d565b6107a68185610a90565b9350836020820285016107b885610a5d565b8060005b858110156107f457848403895281516107d5858261077d565b94506107e083610a83565b925060208a019950506001810190506107bc565b50829750879550505050505092915050565b600061081182610a78565b61081b8185610aa1565b935061082b818560208601610b49565b61083481610c3b565b840191505092915050565b600061084a82610a78565b6108548185610ab2565b9350610864818560208601610b49565b61086d81610c3b565b840191505092915050565b600061088382610a78565b61088d8185610ac3565b935061089d818560208601610b49565b80840191505092915050565b60006108b6601483610ab2565b91507f566f746520646f6573206e6f74206578697374210000000000000000000000006000830152602082019050919050565b60006108f6601483610ab2565b91507f566f746520616c726561647920657869737473210000000000000000000000006000830152602082019050919050565b61093281610b30565b82525050565b60006109448284610878565b915081905092915050565b600060208201905081810360008301526109698184610791565b905092915050565b6000602082019050818103600083015261098b818461083f565b905092915050565b600060208201905081810360008301526109ac816108a9565b9050919050565b600060208201905081810360008301526109cc816108e9565b9050919050565b60006040820190506109e86000830185610929565b6109f56020830184610929565b9392505050565b6000604051905081810181811067ffffffffffffffff82111715610a2357610a22610c0c565b5b8060405250919050565b600067ffffffffffffffff821115610a4857610a47610c0c565b5b601f19601f8301169050602081019050919050565b6000819050602082019050919050565b600081519050919050565b600081519050919050565b6000602082019050919050565b600082825260208201905092915050565b600082825260208201905092915050565b600082825260208201905092915050565b600081905092915050565b6000610ad982610b30565b9150610ae483610b30565b9250827fffffffffffffffffffffffffffffffffffffffffffffffffffffffffffffffff03821115610b1957610b18610bae565b5b828201905092915050565b60008115159050919050565b6000819050919050565b82818337600083830152505050565b60005b83811015610b67578082015181840152602081019050610b4c565b83811115610b76576000848401525b50505050565b60006002820490506001821680610b9457607f821691505b60208210811415610ba857610ba7610bdd565b5b50919050565b7f4e487b7100000000000000000000000000000000000000000000000000000000600052601160045260246000fd5b7f4e487b7100000000000000000000000000000000000000000000000000000000600052602260045260246000fd5b7f4e487b7100000000000000000000000000000000000000000000000000000000600052604160045260246000fd5b6000601f19601f8301169050919050565b610c5581610b24565b8114610c6057600080fd5b50565b610c6c81610b30565b8114610c7757600080fd5b5056fea26469706673582212200da6046c7845207c04ccfedb83fc6f73735217dddf94cfa91e51a03cd0ea474364736f6c63430008000033",
  "immutableReferences": {},
  "source": "// SPDX-License-Identifier: MIT\r\npragma solidity ^0.8.0;\r\n\r\ncontract Voting {\r\n    struct Vote {\r\n        uint yes;\r\n        uint no;\r\n    }\r\n\r\n    mapping(string => Vote) public votes;\r\n    string[] public topics;\r\n\r\n    function createVote(string memory _topic) public {\r\n        require(\r\n            votes[_topic].yes == 0 && votes[_topic].no == 0,\r\n            \"Vote already exists!\"\r\n        );\r\n        votes[_topic] = Vote(0, 0);\r\n        topics.push(_topic);\r\n    }\r\n\r\n    function vote(string memory _topic, bool _voteYes) public {\r\n        require(\r\n            votes[_topic].yes != 0 || votes[_topic].no != 0,\r\n            \"Vote does not exist!\"\r\n        );\r\n        if (_voteYes) {\r\n            votes[_topic].yes += 1;\r\n        } else {\r\n            votes[_topic].no += 1;\r\n        }\r\n    }\r\n\r\n    function getResults(\r\n        string memory _topic\r\n    ) public view returns (uint yes, uint no) {\r\n        return (votes[_topic].yes, votes[_topic].no);\r\n    }\r\n\r\n    // Fungsi baru untuk mengambil daftar topik\r\n    function getAllTopics() public view returns (string[] memory) {\r\n        return topics;\r\n    }\r\n}\r\n",
  "sourcePath": "E:\\BELAJAR KODING\\SOLIDITY\\voting-web3\\contracts\\Voting.sol",
  "compiler": {
    "name": "solc",
    "version": "0.8.0+commit.c7dfd78e.Emscripten.clang"
  },
  "schemaVersion": "3.4.16",
  "updatedAt": "2024-08-29T03:38:51.360Z",
  "networkType": "ethereum",
  "devdoc": {
    "kind": "dev",
    "methods": {},
    "version": 1
  },
  "userdoc": {
    "kind": "user",
    "methods": {},
    "version": 1
  }
}